{
  "contractName": "BatchedPayments",
  "abi": [
    {
      "constant": true,
      "inputs": [
        {
          "name": "paymentId",
          "type": "bytes32"
        }
      ],
      "name": "paymentSuccessful",
      "outputs": [
        {
          "name": "",
          "type": "bool"
        }
      ],
      "payable": false,
      "stateMutability": "view",
      "type": "function"
    },
    {
      "constant": false,
      "inputs": [
        {
          "name": "_tokenAddr",
          "type": "address"
        },
        {
          "name": "dest",
          "type": "address"
        },
        {
          "name": "value",
          "type": "uint256"
        }
      ],
      "name": "send",
      "outputs": [],
      "payable": false,
      "stateMutability": "nonpayable",
      "type": "function"
    },
    {
      "constant": false,
      "inputs": [
        {
          "name": "_tokenAddr",
          "type": "address"
        },
        {
          "name": "paymentId",
          "type": "bytes32"
        },
        {
          "name": "dests",
          "type": "address[]"
        },
        {
          "name": "values",
          "type": "uint256[]"
        }
      ],
      "name": "multisend",
      "outputs": [
        {
          "name": "",
          "type": "uint256"
        }
      ],
      "payable": false,
      "stateMutability": "nonpayable",
      "type": "function"
    },
    {
      "constant": false,
      "inputs": [],
      "name": "withdraw",
      "outputs": [],
      "payable": false,
      "stateMutability": "nonpayable",
      "type": "function"
    },
    {
      "constant": true,
      "inputs": [],
      "name": "owner",
      "outputs": [
        {
          "name": "",
          "type": "address"
        }
      ],
      "payable": false,
      "stateMutability": "view",
      "type": "function"
    },
    {
      "constant": false,
      "inputs": [
        {
          "name": "newOwner",
          "type": "address"
        }
      ],
      "name": "transferOwnership",
      "outputs": [],
      "payable": false,
      "stateMutability": "nonpayable",
      "type": "function"
    }
  ],
  "bytecode": "0x6060604052336000806101000a81548173ffffffffffffffffffffffffffffffffffffffff021916908373ffffffffffffffffffffffffffffffffffffffff160217905550610844806100536000396000f300606060405260043610610078576000357c0100000000000000000000000000000000000000000000000000000000900463ffffffff168063066b31361461007d5780630779afe6146100bc578063206ec7a11461011d5780633ccfd60b146101f75780638da5cb5b1461020c578063f2fde38b14610261575b600080fd5b341561008857600080fd5b6100a260048080356000191690602001909190505061029a565b604051808215151515815260200191505060405180910390f35b34156100c757600080fd5b61011b600480803573ffffffffffffffffffffffffffffffffffffffff1690602001909190803573ffffffffffffffffffffffffffffffffffffffff16906020019091908035906020019091905050610327565b005b341561012857600080fd5b6101e1600480803573ffffffffffffffffffffffffffffffffffffffff16906020019091908035600019169060200190919080359060200190820180359060200190808060200260200160405190810160405280939291908181526020018383602002808284378201915050505050509190803590602001908201803590602001908080602002602001604051908101604052809392919081815260200183836020028082843782019150505050505091905050610458565b6040518082815260200191505060405180910390f35b341561020257600080fd5b61020a61066a565b005b341561021757600080fd5b61021f61071e565b604051808273ffffffffffffffffffffffffffffffffffffffff1673ffffffffffffffffffffffffffffffffffffffff16815260200191505060405180910390f35b341561026c57600080fd5b610298600480803573ffffffffffffffffffffffffffffffffffffffff16906020019091905050610743565b005b60008060009054906101000a900473ffffffffffffffffffffffffffffffffffffffff1673ffffffffffffffffffffffffffffffffffffffff163373ffffffffffffffffffffffffffffffffffffffff161415156102f757600080fd5b60016000836000191660001916815260200190815260200160002060009054906101000a900460ff169050919050565b6000809054906101000a900473ffffffffffffffffffffffffffffffffffffffff1673ffffffffffffffffffffffffffffffffffffffff163373ffffffffffffffffffffffffffffffffffffffff1614151561038257600080fd5b8273ffffffffffffffffffffffffffffffffffffffff1663a9059cbb83836000604051602001526040518363ffffffff167c0100000000000000000000000000000000000000000000000000000000028152600401808373ffffffffffffffffffffffffffffffffffffffff1673ffffffffffffffffffffffffffffffffffffffff16815260200182815260200192505050602060405180830381600087803b151561042d57600080fd5b6102c65a03f1151561043e57600080fd5b50505060405180519050151561045357600080fd5b505050565b6000806000809054906101000a900473ffffffffffffffffffffffffffffffffffffffff1673ffffffffffffffffffffffffffffffffffffffff163373ffffffffffffffffffffffffffffffffffffffff161415156104b657600080fd5b600084511115156104c657600080fd5b83518351101515156104d757600080fd5b6001151560016000876000191660001916815260200190815260200160002060009054906101000a900460ff1615151415151561051357600080fd5b600090505b835181101561062b578573ffffffffffffffffffffffffffffffffffffffff1663a9059cbb858381518110151561054b57fe5b90602001906020020151858481518110151561056357fe5b906020019060200201516000604051602001526040518363ffffffff167c0100000000000000000000000000000000000000000000000000000000028152600401808373ffffffffffffffffffffffffffffffffffffffff1673ffffffffffffffffffffffffffffffffffffffff16815260200182815260200192505050602060405180830381600087803b15156105fa57600080fd5b6102c65a03f1151561060b57600080fd5b50505060405180519050151561062057600080fd5b600181019050610518565b6001806000876000191660001916815260200190815260200160002060006101000a81548160ff02191690831515021790555080915050949350505050565b6000809054906101000a900473ffffffffffffffffffffffffffffffffffffffff1673ffffffffffffffffffffffffffffffffffffffff163373ffffffffffffffffffffffffffffffffffffffff161415156106c557600080fd5b3373ffffffffffffffffffffffffffffffffffffffff166108fc3073ffffffffffffffffffffffffffffffffffffffff16319081150290604051600060405180830381858888f19350505050151561071c57600080fd5b565b6000809054906101000a900473ffffffffffffffffffffffffffffffffffffffff1681565b6000809054906101000a900473ffffffffffffffffffffffffffffffffffffffff1673ffffffffffffffffffffffffffffffffffffffff163373ffffffffffffffffffffffffffffffffffffffff1614151561079e57600080fd5b600073ffffffffffffffffffffffffffffffffffffffff168173ffffffffffffffffffffffffffffffffffffffff1614151561081557806000806101000a81548173ffffffffffffffffffffffffffffffffffffffff021916908373ffffffffffffffffffffffffffffffffffffffff1602179055505b505600a165627a7a72305820b035c3838796e858a70b44325d69f38dc319c10e6ccf8182faaee6d63f6f0ef60029",
  "source": "contract Ownable {\n  address public owner;\n\n\n  /**\n   * @dev The Ownable constructor sets the original `owner` of the contract to the sender\n   * account.\n   */\n  function Ownable() {\n    owner = msg.sender;\n  }\n\n\n  /**\n   * @dev Throws if called by any account other than the owner.\n   */\n  modifier onlyOwner() {\n    if (msg.sender != owner) {\n      throw;\n    }\n    _;\n  }\n\n\n  /**\n   * @dev Allows the current owner to transfer control of the contract to a newOwner.\n   * @param newOwner The address to transfer ownership to.\n   */\n  function transferOwnership(address newOwner) onlyOwner {\n    if (newOwner != address(0)) {\n      owner = newOwner;\n    }\n  }\n\n}\n\n\ncontract ERC20Basic {\n  uint public totalSupply;\n  function balanceOf(address who) constant returns (uint);\n  function transfer(address to, uint value) returns (bool);\n  event Transfer(address indexed from, address indexed to, uint value);\n}\n\ncontract ERC20 is ERC20Basic {\n  function allowance(address owner, address spender) constant returns (uint);\n  function transferFrom(address from, address to, uint value) returns (bool);\n  function approve(address spender, uint value) returns (bool);\n  event Approval(address indexed owner, address indexed spender, uint value);\n}\n\n/*\nThe owner (or anyone) will deposit tokens in here\nThe owner calls the multisend method to send out payments\n*/\ncontract BatchedPayments is Ownable {\n\n    mapping(bytes32 => bool) successfulPayments;\n\n\n    function paymentSuccessful(bytes32 paymentId) public view onlyOwner returns (bool){\n        return successfulPayments[paymentId];\n    }\n\n    //withdraw any eth inside\n    function withdraw() public onlyOwner {\n        msg.sender.transfer(this.balance);\n    }\n\n    function send(address _tokenAddr, address dest, uint value)\n    public onlyOwner\n    {\n      require(ERC20(_tokenAddr).transfer(dest, value));\n    }\n\n    function multisend(address _tokenAddr, bytes32 paymentId, address[] dests, uint256[] values)\n    public onlyOwner\n      returns (uint256) {\n\n        require(dests.length > 0);\n        require(values.length >= dests.length);\n        require(successfulPayments[paymentId] != true);\n\n        uint256 i = 0;\n        while (i < dests.length) {\n           require(ERC20(_tokenAddr).transfer(dests[i], values[i]));\n           i += 1;\n        }\n\n        successfulPayments[paymentId] = true;\n\n        return (i);\n\n    }\n\n\n\n}\n",
  "sourcePath": "/home/andy/dev/batched-payments/contracts/BatchedPayments.sol",
  "compiler": {
    "name": "solc",
    "version": "0.4.19+commit.c4cbbb05.Emscripten.clang"
  },
  "schemaVersion": "2.0.0",
  "updatedAt": "2018-06-19T23:29:39.529Z"
}