{
  "contractName": "MintHelper",
  "abi": [
    {
      "constant": false,
      "inputs": [
        {
          "name": "_tokenAddr",
          "type": "address"
        },
        {
          "name": "dest",
          "type": "address"
        },
        {
          "name": "value",
          "type": "uint256"
        }
      ],
      "name": "send",
      "outputs": [
        {
          "name": "",
          "type": "bool"
        }
      ],
      "payable": false,
      "stateMutability": "nonpayable",
      "type": "function"
    },
    {
      "constant": false,
      "inputs": [
        {
          "name": "mToken",
          "type": "address"
        }
      ],
      "name": "setMintableToken",
      "outputs": [
        {
          "name": "",
          "type": "bool"
        }
      ],
      "payable": false,
      "stateMutability": "nonpayable",
      "type": "function"
    },
    {
      "constant": false,
      "inputs": [],
      "name": "withdraw",
      "outputs": [],
      "payable": false,
      "stateMutability": "nonpayable",
      "type": "function"
    },
    {
      "constant": false,
      "inputs": [
        {
          "name": "mWallet",
          "type": "address"
        }
      ],
      "name": "setMinterWallet",
      "outputs": [
        {
          "name": "",
          "type": "bool"
        }
      ],
      "payable": false,
      "stateMutability": "nonpayable",
      "type": "function"
    },
    {
      "constant": true,
      "inputs": [],
      "name": "owner",
      "outputs": [
        {
          "name": "",
          "type": "address"
        }
      ],
      "payable": false,
      "stateMutability": "view",
      "type": "function"
    },
    {
      "constant": false,
      "inputs": [
        {
          "name": "fee",
          "type": "uint256"
        }
      ],
      "name": "setMinterFeePercent",
      "outputs": [
        {
          "name": "",
          "type": "bool"
        }
      ],
      "payable": false,
      "stateMutability": "nonpayable",
      "type": "function"
    },
    {
      "constant": false,
      "inputs": [
        {
          "name": "nonce",
          "type": "uint256"
        },
        {
          "name": "challenge_digest",
          "type": "bytes32"
        }
      ],
      "name": "proxyMint",
      "outputs": [
        {
          "name": "",
          "type": "bool"
        }
      ],
      "payable": false,
      "stateMutability": "nonpayable",
      "type": "function"
    },
    {
      "constant": false,
      "inputs": [
        {
          "name": "pWallet",
          "type": "address"
        }
      ],
      "name": "setPayoutsWallet",
      "outputs": [
        {
          "name": "",
          "type": "bool"
        }
      ],
      "payable": false,
      "stateMutability": "nonpayable",
      "type": "function"
    },
    {
      "constant": false,
      "inputs": [
        {
          "name": "newOwner",
          "type": "address"
        }
      ],
      "name": "transferOwnership",
      "outputs": [],
      "payable": false,
      "stateMutability": "nonpayable",
      "type": "function"
    },
    {
      "inputs": [
        {
          "name": "mToken",
          "type": "address"
        },
        {
          "name": "pWallet",
          "type": "address"
        },
        {
          "name": "mWallet",
          "type": "address"
        }
      ],
      "payable": false,
      "stateMutability": "nonpayable",
      "type": "constructor"
    }
  ],
  "bytecode": "0x6060604052341561000f57600080fd5b604051606080610ed183398101604052808051906020019091908051906020019091908051906020019091905050336000806101000a81548173ffffffffffffffffffffffffffffffffffffffff021916908373ffffffffffffffffffffffffffffffffffffffff16021790555082600160006101000a81548173ffffffffffffffffffffffffffffffffffffffff021916908373ffffffffffffffffffffffffffffffffffffffff16021790555081600260006101000a81548173ffffffffffffffffffffffffffffffffffffffff021916908373ffffffffffffffffffffffffffffffffffffffff16021790555080600360006101000a81548173ffffffffffffffffffffffffffffffffffffffff021916908373ffffffffffffffffffffffffffffffffffffffff1602179055506005600481905550505050610d778061015a6000396000f300606060405260043610610099576000357c0100000000000000000000000000000000000000000000000000000000900463ffffffff1680630779afe61461009e5780632516a18f146101175780633ccfd60b1461016857806385b6824f1461017d5780638da5cb5b146101ce578063a5c102a214610223578063b1bb4d351461025e578063b61334b1146102a6578063f2fde38b146102f7575b600080fd5b34156100a957600080fd5b6100fd600480803573ffffffffffffffffffffffffffffffffffffffff1690602001909190803573ffffffffffffffffffffffffffffffffffffffff16906020019091908035906020019091905050610330565b604051808215151515815260200191505060405180910390f35b341561012257600080fd5b61014e600480803573ffffffffffffffffffffffffffffffffffffffff1690602001909190505061045c565b604051808215151515815260200191505060405180910390f35b341561017357600080fd5b61017b610503565b005b341561018857600080fd5b6101b4600480803573ffffffffffffffffffffffffffffffffffffffff169060200190919050506105b7565b604051808215151515815260200191505060405180910390f35b34156101d957600080fd5b6101e161065e565b604051808273ffffffffffffffffffffffffffffffffffffffff1673ffffffffffffffffffffffffffffffffffffffff16815260200191505060405180910390f35b341561022e57600080fd5b6102446004808035906020019091905050610683565b604051808215151515815260200191505060405180910390f35b341561026957600080fd5b61028c60048080359060200190919080356000191690602001909190505061070d565b604051808215151515815260200191505060405180910390f35b34156102b157600080fd5b6102dd600480803573ffffffffffffffffffffffffffffffffffffffff16906020019091905050610b5e565b604051808215151515815260200191505060405180910390f35b341561030257600080fd5b61032e600480803573ffffffffffffffffffffffffffffffffffffffff16906020019091905050610c05565b005b60008060009054906101000a900473ffffffffffffffffffffffffffffffffffffffff1673ffffffffffffffffffffffffffffffffffffffff163373ffffffffffffffffffffffffffffffffffffffff1614151561038d57600080fd5b8373ffffffffffffffffffffffffffffffffffffffff1663a9059cbb84846000604051602001526040518363ffffffff167c0100000000000000000000000000000000000000000000000000000000028152600401808373ffffffffffffffffffffffffffffffffffffffff1673ffffffffffffffffffffffffffffffffffffffff16815260200182815260200192505050602060405180830381600087803b151561043857600080fd5b6102c65a03f1151561044957600080fd5b5050506040518051905090509392505050565b60008060009054906101000a900473ffffffffffffffffffffffffffffffffffffffff1673ffffffffffffffffffffffffffffffffffffffff163373ffffffffffffffffffffffffffffffffffffffff161415156104b957600080fd5b81600160006101000a81548173ffffffffffffffffffffffffffffffffffffffff021916908373ffffffffffffffffffffffffffffffffffffffff16021790555060019050919050565b6000809054906101000a900473ffffffffffffffffffffffffffffffffffffffff1673ffffffffffffffffffffffffffffffffffffffff163373ffffffffffffffffffffffffffffffffffffffff1614151561055e57600080fd5b3373ffffffffffffffffffffffffffffffffffffffff166108fc3073ffffffffffffffffffffffffffffffffffffffff16319081150290604051600060405180830381858888f1935050505015156105b557600080fd5b565b60008060009054906101000a900473ffffffffffffffffffffffffffffffffffffffff1673ffffffffffffffffffffffffffffffffffffffff163373ffffffffffffffffffffffffffffffffffffffff1614151561061457600080fd5b81600360006101000a81548173ffffffffffffffffffffffffffffffffffffffff021916908373ffffffffffffffffffffffffffffffffffffffff16021790555060019050919050565b6000809054906101000a900473ffffffffffffffffffffffffffffffffffffffff1681565b60008060009054906101000a900473ffffffffffffffffffffffffffffffffffffffff1673ffffffffffffffffffffffffffffffffffffffff163373ffffffffffffffffffffffffffffffffffffffff161415156106e057600080fd5b600082101580156106f2575060648211155b15156106fd57600080fd5b8160048190555060019050919050565b6000806000806000809054906101000a900473ffffffffffffffffffffffffffffffffffffffff1673ffffffffffffffffffffffffffffffffffffffff163373ffffffffffffffffffffffffffffffffffffffff1614151561076e57600080fd5b600160009054906101000a900473ffffffffffffffffffffffffffffffffffffffff1673ffffffffffffffffffffffffffffffffffffffff1663490203a76000604051602001526040518163ffffffff167c0100000000000000000000000000000000000000000000000000000000028152600401602060405180830381600087803b15156107fc57600080fd5b6102c65a03f1151561080d57600080fd5b505050604051805190509250610841606461083360045486610cda90919063ffffffff16565b610d0b90919063ffffffff16565b91506108568284610d2f90919063ffffffff16565b9050600160009054906101000a900473ffffffffffffffffffffffffffffffffffffffff1673ffffffffffffffffffffffffffffffffffffffff16631801fbe587876000604051602001526040518363ffffffff167c010000000000000000000000000000000000000000000000000000000002815260040180838152602001826000191660001916815260200192505050602060405180830381600087803b151561090157600080fd5b6102c65a03f1151561091257600080fd5b50505060405180519050151561092757600080fd5b600160009054906101000a900473ffffffffffffffffffffffffffffffffffffffff1673ffffffffffffffffffffffffffffffffffffffff1663a9059cbb600360009054906101000a900473ffffffffffffffffffffffffffffffffffffffff16846000604051602001526040518363ffffffff167c0100000000000000000000000000000000000000000000000000000000028152600401808373ffffffffffffffffffffffffffffffffffffffff1673ffffffffffffffffffffffffffffffffffffffff16815260200182815260200192505050602060405180830381600087803b1515610a1657600080fd5b6102c65a03f11515610a2757600080fd5b505050604051805190501515610a3c57600080fd5b600160009054906101000a900473ffffffffffffffffffffffffffffffffffffffff1673ffffffffffffffffffffffffffffffffffffffff1663a9059cbb600260009054906101000a900473ffffffffffffffffffffffffffffffffffffffff16836000604051602001526040518363ffffffff167c0100000000000000000000000000000000000000000000000000000000028152600401808373ffffffffffffffffffffffffffffffffffffffff1673ffffffffffffffffffffffffffffffffffffffff16815260200182815260200192505050602060405180830381600087803b1515610b2b57600080fd5b6102c65a03f11515610b3c57600080fd5b505050604051805190501515610b5157600080fd5b6001935050505092915050565b60008060009054906101000a900473ffffffffffffffffffffffffffffffffffffffff1673ffffffffffffffffffffffffffffffffffffffff163373ffffffffffffffffffffffffffffffffffffffff16141515610bbb57600080fd5b81600260006101000a81548173ffffffffffffffffffffffffffffffffffffffff021916908373ffffffffffffffffffffffffffffffffffffffff16021790555060019050919050565b6000809054906101000a900473ffffffffffffffffffffffffffffffffffffffff1673ffffffffffffffffffffffffffffffffffffffff163373ffffffffffffffffffffffffffffffffffffffff16141515610c6057600080fd5b600073ffffffffffffffffffffffffffffffffffffffff168173ffffffffffffffffffffffffffffffffffffffff16141515610cd757806000806101000a81548173ffffffffffffffffffffffffffffffffffffffff021916908373ffffffffffffffffffffffffffffffffffffffff1602179055505b50565b600081830290506000831480610cfa5750818382811515610cf757fe5b04145b1515610d0557600080fd5b92915050565b60008082111515610d1b57600080fd5b8183811515610d2657fe5b04905092915050565b6000828211151515610d4057600080fd5b8183039050929150505600a165627a7a72305820c74a14387655e5b513789eb243a8c27053017893a22f2b46b21e9ccf15e280670029",
  "source": "pragma solidity ^0.4.18;\n\n\n\nlibrary SafeMath {\n\n    function add(uint a, uint b) internal pure returns (uint c) {\n\n        c = a + b;\n\n        require(c >= a);\n\n    }\n\n    function sub(uint a, uint b) internal pure returns (uint c) {\n\n        require(b <= a);\n\n        c = a - b;\n\n    }\n\n    function mul(uint a, uint b) internal pure returns (uint c) {\n\n        c = a * b;\n\n        require(a == 0 || c / a == b);\n\n    }\n\n    function div(uint a, uint b) internal pure returns (uint c) {\n\n        require(b > 0);\n\n        c = a / b;\n\n    }\n\n}\n\ncontract Ownable {\n\n\n\n  address public owner;\n\n\n  /**\n   * @dev The Ownable constructor sets the original `owner` of the contract to the sender\n   * account.\n   */\n  function Ownable() {\n    owner = msg.sender;\n  }\n\n\n  /**\n   * @dev Throws if called by any account other than the owner.\n   */\n  modifier onlyOwner() {\n    if (msg.sender != owner) {\n      throw;\n    }\n    _;\n  }\n\n\n  /**\n   * @dev Allows the current owner to transfer control of the contract to a newOwner.\n   * @param newOwner The address to transfer ownership to.\n   */\n  function transferOwnership(address newOwner) onlyOwner {\n    if (newOwner != address(0)) {\n      owner = newOwner;\n    }\n  }\n\n}\n\n\ncontract ERC20Interface {\n    function totalSupply() public constant returns (uint);\n    function balanceOf(address tokenOwner) public constant returns (uint balance);\n    function allowance(address tokenOwner, address spender) public constant returns (uint remaining);\n    function transfer(address to, uint tokens) public returns (bool success);\n    function approve(address spender, uint tokens) public returns (bool success);\n    function transferFrom(address from, address to, uint tokens) public returns (bool success);\n\n    event Transfer(address indexed from, address indexed to, uint tokens);\n    event Approval(address indexed tokenOwner, address indexed spender, uint tokens);\n}\n\ncontract ERC918Interface {\n  function totalSupply() public constant returns (uint);\n  function getMiningDifficulty() public constant returns (uint);\n  function getMiningTarget() public constant returns (uint);\n  function getMiningReward() public constant returns (uint);\n  function balanceOf(address tokenOwner) public constant returns (uint balance);\n\n  function mint(uint256 nonce, bytes32 challenge_digest) public returns (bool success);\n\n  event Mint(address indexed from, uint reward_amount, uint epochCount, bytes32 newChallengeNumber);\n\n}\n\n/*\nThe owner (or anyone) will deposit tokens in here\nThe owner calls the multisend method to send out payments\n*/\ncontract MintHelper is Ownable {\n\n  using SafeMath for uint;\n\n    address mintableToken;\n\n    address payoutsWallet;\n    address minterWallet;\n\n    uint minterFeePercent;\n\n\n    function MintHelper(address mToken, address pWallet, address mWallet)\n    {\n      mintableToken = mToken;\n      payoutsWallet = pWallet;\n      minterWallet = mWallet;\n      minterFeePercent = 5;\n    }\n\n    function setMintableToken(address mToken)\n    public onlyOwner\n    returns (bool)\n    {\n      mintableToken = mToken;\n      return true;\n    }\n\n    function setPayoutsWallet(address pWallet)\n    public onlyOwner\n    returns (bool)\n    {\n      payoutsWallet = pWallet;\n      return true;\n    }\n\n    function setMinterWallet(address mWallet)\n    public onlyOwner\n    returns (bool)\n    {\n      minterWallet = mWallet;\n      return true;\n    }\n\n    function setMinterFeePercent(uint fee)\n    public onlyOwner\n    returns (bool)\n    {\n      require(fee >= 0 && fee <= 100);\n      minterFeePercent = fee;\n      return true;\n    }\n\n\n\n    function proxyMint(uint256 nonce, bytes32 challenge_digest )\n    public onlyOwner\n    returns (bool)\n    {\n      //identify the rewards that will be won and how to split them up\n      uint totalReward = ERC918Interface(mintableToken).getMiningReward();\n\n      uint minterReward = totalReward.mul(minterFeePercent).div(100);\n      uint payoutReward = totalReward.sub(minterReward);\n\n      // get paid in new tokens\n      require(ERC918Interface(mintableToken).mint(nonce, challenge_digest));\n\n      //transfer the tokens to the correct wallets\n      require(ERC20Interface(mintableToken).transfer(minterWallet, minterReward));\n      require(ERC20Interface(mintableToken).transfer(payoutsWallet, payoutReward));\n\n      return true;\n\n    }\n\n\n\n    //withdraw any eth inside\n    function withdraw()\n    public onlyOwner\n    {\n        msg.sender.transfer(this.balance);\n    }\n\n    //send tokens out\n    function send(address _tokenAddr, address dest, uint value)\n    public onlyOwner\n    returns (bool)\n    {\n     return ERC20Interface(_tokenAddr).transfer(dest, value);\n    }\n\n\n\n  /*  function multisend(address _tokenAddr, bytes32 paymentId, address[] dests, uint256[] values)\n    public onlyOwner\n    returns (uint256)\n     {\n\n        require(dests.length > 0);\n        require(values.length >= dests.length);\n        require(successfulPayments[paymentId] != true);\n\n        uint256 i = 0;\n        while (i < dests.length) {\n           require(ERC20(_tokenAddr).transfer(dests[i], values[i]));\n           i += 1;\n        }\n\n        successfulPayments[paymentId] = true;\n\n        return (i);\n\n    }*/\n\n\n\n}\n",
  "sourcePath": "/home/andy/dev/mint-helper/contracts/MintHelper.sol",
  "compiler": {
    "name": "solc",
    "version": "0.4.19+commit.c4cbbb05.Emscripten.clang"
  },
  "schemaVersion": "2.0.0",
  "updatedAt": "2018-06-21T00:32:27.956Z"
}