{
  "contractName": "DoubleKingsReward",
  "abi": [
    {
      "constant": true,
      "inputs": [],
      "name": "kingContract",
      "outputs": [
        {
          "name": "",
          "type": "address"
        }
      ],
      "payable": false,
      "stateMutability": "view",
      "type": "function"
    },
    {
      "constant": true,
      "inputs": [],
      "name": "minedToken",
      "outputs": [
        {
          "name": "",
          "type": "address"
        }
      ],
      "payable": false,
      "stateMutability": "view",
      "type": "function"
    },
    {
      "inputs": [
        {
          "name": "mintableToken",
          "type": "address"
        },
        {
          "name": "miningKingContract",
          "type": "address"
        }
      ],
      "payable": false,
      "stateMutability": "nonpayable",
      "type": "constructor"
    },
    {
      "payable": true,
      "stateMutability": "payable",
      "type": "fallback"
    },
    {
      "constant": false,
      "inputs": [
        {
          "name": "nonce",
          "type": "uint256"
        },
        {
          "name": "challenge_digest",
          "type": "bytes32"
        },
        {
          "name": "proxyMintArray",
          "type": "address[]"
        }
      ],
      "name": "mintForwarder",
      "outputs": [
        {
          "name": "",
          "type": "bool"
        }
      ],
      "payable": false,
      "stateMutability": "nonpayable",
      "type": "function"
    },
    {
      "constant": true,
      "inputs": [
        {
          "name": "array",
          "type": "address[]"
        }
      ],
      "name": "popFirstFromArray",
      "outputs": [
        {
          "name": "",
          "type": "address[]"
        }
      ],
      "payable": false,
      "stateMutability": "pure",
      "type": "function"
    },
    {
      "constant": true,
      "inputs": [
        {
          "name": "x",
          "type": "uint256"
        }
      ],
      "name": "uintToBytesForAddress",
      "outputs": [
        {
          "name": "b",
          "type": "bytes"
        }
      ],
      "payable": false,
      "stateMutability": "pure",
      "type": "function"
    },
    {
      "constant": true,
      "inputs": [
        {
          "name": "b",
          "type": "bytes"
        }
      ],
      "name": "bytesToAddress",
      "outputs": [
        {
          "name": "",
          "type": "address"
        }
      ],
      "payable": false,
      "stateMutability": "pure",
      "type": "function"
    }
  ],
  "bytecode": "0x608060405234801561001057600080fd5b50604051604080610e87833981018060405281019080805190602001909291908051906020019092919050505081600160006101000a81548173ffffffffffffffffffffffffffffffffffffffff021916908373ffffffffffffffffffffffffffffffffffffffff160217905550806000806101000a81548173ffffffffffffffffffffffffffffffffffffffff021916908373ffffffffffffffffffffffffffffffffffffffff1602179055505050610db8806100cf6000396000f300608060405260043610610078576000357c0100000000000000000000000000000000000000000000000000000000900463ffffffff168063111da3a71461007d57806342526e4e1461013857806356b558d3146101e15780637968716614610238578063a3c5dcce146102de578063edfffca014610374575b600080fd5b34801561008957600080fd5b506100e1600480360381019080803590602001908201803590602001908080602002602001604051908101604052809392919081815260200183836020028082843782019150505050505091929192905050506103cb565b6040518080602001828103825283818151815260200191508051906020019060200280838360005b83811015610124578082015181840152602081019050610109565b505050509050019250505060405180910390f35b34801561014457600080fd5b5061019f600480360381019080803590602001908201803590602001908080601f0160208091040260200160405190810160405280939291908181526020018383808284378201915050505050509192919290505050610493565b604051808273ffffffffffffffffffffffffffffffffffffffff1673ffffffffffffffffffffffffffffffffffffffff16815260200191505060405180910390f35b3480156101ed57600080fd5b506101f6610560565b604051808273ffffffffffffffffffffffffffffffffffffffff1673ffffffffffffffffffffffffffffffffffffffff16815260200191505060405180910390f35b34801561024457600080fd5b5061026360048036038101908080359060200190929190505050610585565b6040518080602001828103825283818151815260200191508051906020019080838360005b838110156102a3578082015181840152602081019050610288565b50505050905090810190601f1680156102d05780820380516001836020036101000a031916815260200191505b509250505060405180910390f35b3480156102ea57600080fd5b5061035a60048036038101908080359060200190929190803560001916906020019092919080359060200190820180359060200190808060200260200160405190810160405280939291908181526020018383602002808284378201915050505050509192919290505050610659565b604051808215151515815260200191505060405180910390f35b34801561038057600080fd5b50610389610d48565b604051808273ffffffffffffffffffffffffffffffffffffffff1673ffffffffffffffffffffffffffffffffffffffff16815260200191505060405180910390f35b606080600060018451036040519080825280602002602001820160405280156104035781602001602082028038833980820191505090505b509150600090505b600184510381101561048957836001820181518110151561042857fe5b90602001906020020151828281518110151561044057fe5b9060200190602002019073ffffffffffffffffffffffffffffffffffffffff16908173ffffffffffffffffffffffffffffffffffffffff1681525050808060010191505061040b565b8192505050919050565b6000806000806000809350600186510392505b60006001840111156105545785838151811015156104c057fe5b9060200101517f010000000000000000000000000000000000000000000000000000000000000090047f0100000000000000000000000000000000000000000000000000000000000000027f0100000000000000000000000000000000000000000000000000000000000000900491506002600184885103030260100a8202905080840193508280600190039350506104a6565b83945050505050919050565b6000809054906101000a900473ffffffffffffffffffffffffffffffffffffffff1681565b6060600060146040519080825280601f01601f1916602001820160405280156105bd5781602001602082028038833980820191505090505b509150600090505b60148110156106505780601f0360080260020a838115156105e257fe5b047f010000000000000000000000000000000000000000000000000000000000000002828281518110151561061357fe5b9060200101907effffffffffffffffffffffffffffffffffffffffffffffffffffffffffffff1916908160001a90535080806001019150506105c5565b81915050919050565b60008060006060600060606000806000895111151561067757600080fd5b600160009054906101000a900473ffffffffffffffffffffffffffffffffffffffff1673ffffffffffffffffffffffffffffffffffffffff1663829965cc6040518163ffffffff167c0100000000000000000000000000000000000000000000000000000000028152600401602060405180830381600087803b1580156106fd57600080fd5b505af1158015610711573d6000803e3d6000fd5b505050506040513d602081101561072757600080fd5b8101908080519060200190929190505050965088600081518110151561074957fe5b906020019060200201519550600189511415610829578573ffffffffffffffffffffffffffffffffffffffff1663b1bb4d358c8c6040518363ffffffff167c010000000000000000000000000000000000000000000000000000000002815260040180838152602001826000191660001916815260200192505050602060405180830381600087803b1580156107de57600080fd5b505af11580156107f2573d6000803e3d6000fd5b505050506040513d602081101561080857600080fd5b8101908080519060200190929190505050151561082457600080fd5b610943565b610832896103cb565b94508573ffffffffffffffffffffffffffffffffffffffff1663a3c5dcce8c8c886040518463ffffffff167c010000000000000000000000000000000000000000000000000000000002815260040180848152602001836000191660001916815260200180602001828103825283818151815260200191508051906020019060200280838360005b838110156108d55780820151818401526020810190506108ba565b50505050905001945050505050602060405180830381600087803b1580156108fc57600080fd5b505af1158015610910573d6000803e3d6000fd5b505050506040513d602081101561092657600080fd5b8101908080519060200190929190505050151561094257600080fd5b5b610957600188610d6e90919063ffffffff16565b600160009054906101000a900473ffffffffffffffffffffffffffffffffffffffff1673ffffffffffffffffffffffffffffffffffffffff1663829965cc6040518163ffffffff167c0100000000000000000000000000000000000000000000000000000000028152600401602060405180830381600087803b1580156109dd57600080fd5b505af11580156109f1573d6000803e3d6000fd5b505050506040513d6020811015610a0757600080fd5b8101908080519060200190929190505050141515610a2457600080fd5b6000809054906101000a900473ffffffffffffffffffffffffffffffffffffffff1673ffffffffffffffffffffffffffffffffffffffff16637920d8046040518163ffffffff167c0100000000000000000000000000000000000000000000000000000000028152600401602060405180830381600087803b158015610aa957600080fd5b505af1158015610abd573d6000803e3d6000fd5b505050506040513d6020811015610ad357600080fd5b81019080805190602001909291905050509350610aef8b610585565b9250610afa83610493565b91508173ffffffffffffffffffffffffffffffffffffffff168473ffffffffffffffffffffffffffffffffffffffff161415610d3657600160009054906101000a900473ffffffffffffffffffffffffffffffffffffffff1673ffffffffffffffffffffffffffffffffffffffff166370a08231306040518263ffffffff167c0100000000000000000000000000000000000000000000000000000000028152600401808273ffffffffffffffffffffffffffffffffffffffff1673ffffffffffffffffffffffffffffffffffffffff168152602001915050602060405180830381600087803b158015610bed57600080fd5b505af1158015610c01573d6000803e3d6000fd5b505050506040513d6020811015610c1757600080fd5b81019080805190602001909291905050509050600160009054906101000a900473ffffffffffffffffffffffffffffffffffffffff1673ffffffffffffffffffffffffffffffffffffffff1663a9059cbb83836040518363ffffffff167c0100000000000000000000000000000000000000000000000000000000028152600401808373ffffffffffffffffffffffffffffffffffffffff1673ffffffffffffffffffffffffffffffffffffffff16815260200182815260200192505050602060405180830381600087803b158015610cef57600080fd5b505af1158015610d03573d6000803e3d6000fd5b505050506040513d6020811015610d1957600080fd5b81019080805190602001909291905050501515610d3557600080fd5b5b60019750505050505050509392505050565b600160009054906101000a900473ffffffffffffffffffffffffffffffffffffffff1681565b6000808284019050838110151515610d8257fe5b80915050929150505600a165627a7a723058209b813bb2b73e7b293fdf1eebbe05c7e1e8a87c4b0e26ce9bf565655754e8783d0029",
  "source": "pragma solidity ^0.4.18;\n\n\n\n/**\n * @title SafeMath\n * @dev Math operations with safety checks that throw on error\n */\nlibrary SafeMath {\n\n  /**\n  * @dev Multiplies two numbers, throws on overflow.\n  */\n  function mul(uint256 a, uint256 b) internal pure returns (uint256) {\n    if (a == 0) {\n      return 0;\n    }\n    uint256 c = a * b;\n    assert(c / a == b);\n    return c;\n  }\n\n  /**\n  * @dev Integer division of two numbers, truncating the quotient.\n  */\n  function div(uint256 a, uint256 b) internal pure returns (uint256) {\n    // assert(b > 0); // Solidity automatically throws when dividing by 0\n    uint256 c = a / b;\n    // assert(a == b * c + a % b); // There is no case in which this doesn't hold\n    return c;\n  }\n\n  /**\n  * @dev Substracts two numbers, throws on overflow (i.e. if subtrahend is greater than minuend).\n  */\n  function sub(uint256 a, uint256 b) internal pure returns (uint256) {\n    assert(b <= a);\n    return a - b;\n  }\n\n  /**\n  * @dev Adds two numbers, throws on overflow.\n  */\n  function add(uint256 a, uint256 b) internal pure returns (uint256) {\n    uint256 c = a + b;\n    assert(c >= a);\n    return c;\n  }\n}\n\n\n/*\n\nWhen executed after the Kings contract, the entire token balance inside the contract will be transferred to the minter if they becomes the king which they are already the king.\n\n\n*/\n\n\ncontract ERC20Interface {\n    function totalSupply() public constant returns (uint);\n    function balanceOf(address tokenOwner) public constant returns (uint balance);\n    function allowance(address tokenOwner, address spender) public constant returns (uint remaining);\n    function transfer(address to, uint tokens) public returns (bool success);\n    function approve(address spender, uint tokens) public returns (bool success);\n    function transferFrom(address from, address to, uint tokens) public returns (bool success);\n\n    event Transfer(address indexed from, address indexed to, uint tokens);\n    event Approval(address indexed tokenOwner, address indexed spender, uint tokens);\n}\n\ncontract ERC918Interface {\n\n  function epochCount() public constant returns (uint);\n\n  function totalSupply() public constant returns (uint);\n  function getMiningDifficulty() public constant returns (uint);\n  function getMiningTarget() public constant returns (uint);\n  function getMiningReward() public constant returns (uint);\n  function balanceOf(address tokenOwner) public constant returns (uint balance);\n\n  function mint(uint256 nonce, bytes32 challenge_digest) public returns (bool success);\n\n  event Mint(address indexed from, uint reward_amount, uint epochCount, bytes32 newChallengeNumber);\n\n}\n\ncontract mintForwarderInterface\n{\n  function mintForwarder(uint256 nonce, bytes32 challenge_digest, address[] proxyMintArray) public returns (bool success);\n}\n\ncontract proxyMinterInterface\n{\n  function proxyMint(uint256 nonce, bytes32 challenge_digest) public returns (bool success);\n}\n\ncontract miningKingContract\n{\n  function getKing() public returns (address king);\n}\n\n\n\ncontract DoubleKingsReward\n{\n\n\n  using SafeMath for uint;\n\n\n   address public kingContract;\n\n   address public minedToken;\n\n \n\n   // 0xBTC is 0xb6ed7644c69416d67b522e20bc294a9a9b405b31;\n  constructor(address mintableToken, address miningKingContract) public  {\n    minedToken = mintableToken;\n    kingContract = miningKingContract;\n  }\n\n\n  //do not allow ether to enter\n  function() public payable {\n      revert();\n  }\n\n\n\n\n/**\n Pay out the token balance if the king becomes the king twice in a row\n**/\n\n//proxyMintWithKing\n   function mintForwarder(uint256 nonce, bytes32 challenge_digest, address[] proxyMintArray) public returns (bool)\n   {\n\n       require(proxyMintArray.length > 0);\n\n\n       uint previousEpochCount = ERC918Interface(minedToken).epochCount();\n\n       address proxyMinter = proxyMintArray[0];\n\n       if(proxyMintArray.length == 1)\n       {\n         //Forward to the last proxyMint contract, typically a pool's owned  mint contract\n         require(proxyMinterInterface(proxyMinter).proxyMint(nonce, challenge_digest));\n       }else{\n         //if array length is greater than 1, pop the proxyMinter from the front of the array and keep cascading down the chain...\n         address[] memory remainingProxyMintArray = popFirstFromArray(proxyMintArray);\n\n         require(mintForwarderInterface(proxyMinter).mintForwarder(nonce, challenge_digest,remainingProxyMintArray));\n       }\n\n      //make sure that the minedToken really was proxy minted through the proxyMint delegate call chain\n       require( ERC918Interface(minedToken).epochCount() == previousEpochCount.add(1) );\n\n\n\n\n       // UNIQUE CONTRACT ACTION SPACE\n       address miningKing = miningKingContract(kingContract).getKing();\n\n       bytes memory nonceBytes = uintToBytesForAddress(nonce);\n\n       address newKing = bytesToAddress(nonceBytes);\n\n       if(miningKing == newKing)\n       {\n         uint balance = ERC20Interface(minedToken).balanceOf(this);\n         require(ERC20Interface(minedToken).transfer(newKing,balance));\n       }\n       // --------\n\n       return true;\n   }\n\n\n  function popFirstFromArray(address[] array) pure public returns (address[] memory)\n  {\n    address[] memory newArray = new address[](array.length-1);\n\n    for (uint i=0; i < array.length-1; i++) {\n      newArray[i] =  array[i+1]  ;\n    }\n\n    return newArray;\n  }\n\n function uintToBytesForAddress(uint256 x) pure public returns (bytes b) {\n\n      b = new bytes(20);\n      for (uint i = 0; i < 20; i++) {\n          b[i] = byte(uint8(x / (2**(8*(31 - i)))));\n      }\n\n      return b;\n    }\n\n\n function bytesToAddress (bytes b) pure public returns (address) {\n     uint result = 0;\n     for (uint i = b.length-1; i+1 > 0; i--) {\n       uint c = uint(b[i]);\n       uint to_inc = c * ( 16 ** ((b.length - i-1) * 2));\n       result += to_inc;\n     }\n     return address(result);\n }\n\n\n\n\n}\n",
  "sourcePath": "/home/andy/dev/lava-wallet/contracts/DoubleKingsReward.sol",
  "compiler": {
    "name": "solc",
    "version": "0.4.24+commit.e67f0147.Emscripten.clang"
  },
  "schemaVersion": "2.0.1",
  "updatedAt": "2018-07-21T01:55:52.423Z"
}