{
  "contractName": "MiningKing",
  "abi": [
    {
      "constant": true,
      "inputs": [],
      "name": "miningKing",
      "outputs": [
        {
          "name": "",
          "type": "address"
        }
      ],
      "payable": false,
      "stateMutability": "view",
      "type": "function"
    },
    {
      "constant": true,
      "inputs": [],
      "name": "minedToken",
      "outputs": [
        {
          "name": "",
          "type": "address"
        }
      ],
      "payable": false,
      "stateMutability": "view",
      "type": "function"
    },
    {
      "inputs": [
        {
          "name": "mintableToken",
          "type": "address"
        }
      ],
      "payable": false,
      "stateMutability": "nonpayable",
      "type": "constructor"
    },
    {
      "payable": true,
      "stateMutability": "payable",
      "type": "fallback"
    },
    {
      "anonymous": false,
      "inputs": [
        {
          "indexed": false,
          "name": "from",
          "type": "address"
        },
        {
          "indexed": false,
          "name": "to",
          "type": "address"
        }
      ],
      "name": "TransferKing",
      "type": "event"
    },
    {
      "constant": false,
      "inputs": [],
      "name": "getKing",
      "outputs": [
        {
          "name": "king",
          "type": "address"
        }
      ],
      "payable": false,
      "stateMutability": "nonpayable",
      "type": "function"
    },
    {
      "constant": false,
      "inputs": [
        {
          "name": "newKing",
          "type": "address"
        }
      ],
      "name": "transferKing",
      "outputs": [],
      "payable": false,
      "stateMutability": "nonpayable",
      "type": "function"
    },
    {
      "constant": false,
      "inputs": [
        {
          "name": "nonce",
          "type": "uint256"
        },
        {
          "name": "challenge_digest",
          "type": "bytes32"
        },
        {
          "name": "proxyMintArray",
          "type": "address[]"
        }
      ],
      "name": "mintForwarder",
      "outputs": [
        {
          "name": "",
          "type": "bool"
        }
      ],
      "payable": false,
      "stateMutability": "nonpayable",
      "type": "function"
    },
    {
      "constant": false,
      "inputs": [
        {
          "name": "array",
          "type": "address[]"
        }
      ],
      "name": "popFirstFromArray",
      "outputs": [
        {
          "name": "",
          "type": "address[]"
        }
      ],
      "payable": false,
      "stateMutability": "nonpayable",
      "type": "function"
    },
    {
      "constant": true,
      "inputs": [
        {
          "name": "x",
          "type": "uint256"
        }
      ],
      "name": "uintToBytesForAddress",
      "outputs": [
        {
          "name": "b",
          "type": "bytes"
        }
      ],
      "payable": false,
      "stateMutability": "view",
      "type": "function"
    },
    {
      "constant": true,
      "inputs": [
        {
          "name": "b",
          "type": "bytes"
        }
      ],
      "name": "bytesToAddress",
      "outputs": [
        {
          "name": "",
          "type": "address"
        }
      ],
      "payable": false,
      "stateMutability": "view",
      "type": "function"
    }
  ],
  "bytecode": "0x608060405234801561001057600080fd5b50604051602080610d508339810180604052810190808051906020019092919050505080600160006101000a81548173ffffffffffffffffffffffffffffffffffffffff021916908373ffffffffffffffffffffffffffffffffffffffff16021790555050610ccc806100846000396000f30060806040526004361061008e576000357c0100000000000000000000000000000000000000000000000000000000900463ffffffff16806306d8619b14610093578063111da3a7146100d6578063405103991461019157806342526e4e146101e85780637920d8041461029157806379687166146102e8578063a3c5dcce1461038e578063edfffca014610424575b600080fd5b34801561009f57600080fd5b506100d4600480360381019080803573ffffffffffffffffffffffffffffffffffffffff16906020019092919050505061047b565b005b3480156100e257600080fd5b5061013a600480360381019080803590602001908201803590602001908080602002602001604051908101604052809392919081815260200183836020028082843782019150505050505091929192905050506105b0565b6040518080602001828103825283818151815260200191508051906020019060200280838360005b8381101561017d578082015181840152602081019050610162565b505050509050019250505060405180910390f35b34801561019d57600080fd5b506101a661063f565b604051808273ffffffffffffffffffffffffffffffffffffffff1673ffffffffffffffffffffffffffffffffffffffff16815260200191505060405180910390f35b3480156101f457600080fd5b5061024f600480360381019080803590602001908201803590602001908080601f0160208091040260200160405190810160405280939291908181526020018383808284378201915050505050509192919290505050610664565b604051808273ffffffffffffffffffffffffffffffffffffffff1673ffffffffffffffffffffffffffffffffffffffff16815260200191505060405180910390f35b34801561029d57600080fd5b506102a6610731565b604051808273ffffffffffffffffffffffffffffffffffffffff1673ffffffffffffffffffffffffffffffffffffffff16815260200191505060405180910390f35b3480156102f457600080fd5b506103136004803603810190808035906020019092919050505061075a565b6040518080602001828103825283818151815260200191508051906020019080838360005b83811015610353578082015181840152602081019050610338565b50505050905090810190601f1680156103805780820380516001836020036101000a031916815260200191505b509250505060405180910390f35b34801561039a57600080fd5b5061040a6004803603810190808035906020019092919080356000191690602001909291908035906020019082018035906020019080806020026020016040519081016040528093929190818152602001838360200280828437820191505050505050919291929050505061082e565b604051808215151515815260200191505060405180910390f35b34801561043057600080fd5b50610439610c5c565b604051808273ffffffffffffffffffffffffffffffffffffffff1673ffffffffffffffffffffffffffffffffffffffff16815260200191505060405180910390f35b6000809054906101000a900473ffffffffffffffffffffffffffffffffffffffff1673ffffffffffffffffffffffffffffffffffffffff163373ffffffffffffffffffffffffffffffffffffffff161415156104d657600080fd5b806000806101000a81548173ffffffffffffffffffffffffffffffffffffffff021916908373ffffffffffffffffffffffffffffffffffffffff1602179055507fcb21dc7de62e70efdb467b866050922f2845c8b005b478e6ca5dd975819943dd3382604051808373ffffffffffffffffffffffffffffffffffffffff1673ffffffffffffffffffffffffffffffffffffffff1681526020018273ffffffffffffffffffffffffffffffffffffffff1673ffffffffffffffffffffffffffffffffffffffff1681526020019250505060405180910390a150565b6060806000600190505b83518110156106355783818151811015156105d157fe5b9060200190602002015182600183038151811015156105ec57fe5b9060200190602002019073ffffffffffffffffffffffffffffffffffffffff16908173ffffffffffffffffffffffffffffffffffffffff168152505080806001019150506105ba565b8192505050919050565b6000809054906101000a900473ffffffffffffffffffffffffffffffffffffffff1681565b6000806000806000809350600186510392505b600060018401111561072557858381518110151561069157fe5b9060200101517f010000000000000000000000000000000000000000000000000000000000000090047f0100000000000000000000000000000000000000000000000000000000000000027f0100000000000000000000000000000000000000000000000000000000000000900491506002600184885103030260100a820290508084019350828060019003935050610677565b83945050505050919050565b60008060009054906101000a900473ffffffffffffffffffffffffffffffffffffffff16905090565b6060600060146040519080825280601f01601f1916602001820160405280156107925781602001602082028038833980820191505090505b509150600090505b60148110156108255780601f0360080260020a838115156107b757fe5b047f01000000000000000000000000000000000000000000000000000000000000000282828151811015156107e857fe5b9060200101907effffffffffffffffffffffffffffffffffffffffffffffffffffffffffffff1916908160001a905350808060010191505061079a565b81915050919050565b60006060600080600060606000875111151561084957600080fd5b6108528961075a565b945061085d85610664565b9350600160009054906101000a900473ffffffffffffffffffffffffffffffffffffffff1673ffffffffffffffffffffffffffffffffffffffff1663829965cc6040518163ffffffff167c0100000000000000000000000000000000000000000000000000000000028152600401602060405180830381600087803b1580156108e557600080fd5b505af11580156108f9573d6000803e3d6000fd5b505050506040513d602081101561090f57600080fd5b8101908080519060200190929190505050925086600081518110151561093157fe5b906020019060200201519150600187511415610a11578173ffffffffffffffffffffffffffffffffffffffff1663b1bb4d358a8a6040518363ffffffff167c010000000000000000000000000000000000000000000000000000000002815260040180838152602001826000191660001916815260200192505050602060405180830381600087803b1580156109c657600080fd5b505af11580156109da573d6000803e3d6000fd5b505050506040513d60208110156109f057600080fd5b81019080805190602001909291905050501515610a0c57600080fd5b610b2b565b610a1a876105b0565b90508173ffffffffffffffffffffffffffffffffffffffff1663a3c5dcce8a8a846040518463ffffffff167c010000000000000000000000000000000000000000000000000000000002815260040180848152602001836000191660001916815260200180602001828103825283818151815260200191508051906020019060200280838360005b83811015610abd578082015181840152602081019050610aa2565b50505050905001945050505050602060405180830381600087803b158015610ae457600080fd5b505af1158015610af8573d6000803e3d6000fd5b505050506040513d6020811015610b0e57600080fd5b81019080805190602001909291905050501515610b2a57600080fd5b5b610b3f600184610c8290919063ffffffff16565b600160009054906101000a900473ffffffffffffffffffffffffffffffffffffffff1673ffffffffffffffffffffffffffffffffffffffff1663829965cc6040518163ffffffff167c0100000000000000000000000000000000000000000000000000000000028152600401602060405180830381600087803b158015610bc557600080fd5b505af1158015610bd9573d6000803e3d6000fd5b505050506040513d6020811015610bef57600080fd5b8101908080519060200190929190505050141515610c0c57600080fd5b836000806101000a81548173ffffffffffffffffffffffffffffffffffffffff021916908373ffffffffffffffffffffffffffffffffffffffff1602179055506001955050505050509392505050565b600160009054906101000a900473ffffffffffffffffffffffffffffffffffffffff1681565b6000808284019050838110151515610c9657fe5b80915050929150505600a165627a7a723058207f564d4e5b8a8307c02179abe796536e31383b1f604a7e8ffa0dca1859ff5dac0029",
  "source": "pragma solidity ^0.4.18;\n\n\nimport \"./SafeMath.sol\";\n\n\n/*\n\nThis is a King Of The Hill contract which requires Proof of Work (hashpower) to set the king\n\nThis global non-owned contract proxy-mints 0xBTC through a personally-owned mintHelper contract (MintHelper.sol)\n\n*/\n\ncontract ERC20Interface {\n    function totalSupply() public constant returns (uint);\n    function balanceOf(address tokenOwner) public constant returns (uint balance);\n    function allowance(address tokenOwner, address spender) public constant returns (uint remaining);\n    function transfer(address to, uint tokens) public returns (bool success);\n    function approve(address spender, uint tokens) public returns (bool success);\n    function transferFrom(address from, address to, uint tokens) public returns (bool success);\n\n    event Transfer(address indexed from, address indexed to, uint tokens);\n    event Approval(address indexed tokenOwner, address indexed spender, uint tokens);\n}\ncontract ERC918Interface {\n\n  function epochCount() public constant returns (uint);\n\n  function totalSupply() public constant returns (uint);\n  function getMiningDifficulty() public constant returns (uint);\n  function getMiningTarget() public constant returns (uint);\n  function getMiningReward() public constant returns (uint);\n  function balanceOf(address tokenOwner) public constant returns (uint balance);\n\n  function mint(uint256 nonce, bytes32 challenge_digest) public returns (bool success);\n\n  event Mint(address indexed from, uint reward_amount, uint epochCount, bytes32 newChallengeNumber);\n\n}\n\ncontract mintForwarderInterface\n{\n  function mintForwarder(uint256 nonce, bytes32 challenge_digest, address[] proxyMintArray) public returns (bool success);\n}\n\ncontract proxyMinterInterface\n{\n  function proxyMint(uint256 nonce, bytes32 challenge_digest) public returns (bool success);\n}\n\n\ncontract MiningKing   {\n\n\n  using SafeMath for uint;\n\n\n   address public miningKing;\n\n   address public minedToken;\n\n\n   event TransferKing(address from, address to);\n\n   // 0xBTC is 0xb6ed7644c69416d67b522e20bc294a9a9b405b31;\n  constructor(address mintableToken) public  {\n    minedToken = mintableToken;\n  }\n\n\n  //do not allow ether to enter\n  function() public payable {\n      revert();\n  }\n\n  function getKing() public returns (address king)\n  {\n    return miningKing;\n  }\n\n   function transferKing(address newKing) public   {\n\n       require(msg.sender == miningKing);\n\n       miningKing = newKing;\n\n       TransferKing(msg.sender, newKing);\n\n   }\n\n\n/**\nSet the king to the Ethereum Address which is encoded as 160 bits of the 256 bit mining nonce\n\n\n**/\n\n//proxyMintWithKing\n   function mintForwarder(uint256 nonce, bytes32 challenge_digest, address[] proxyMintArray) returns (bool)\n   {\n\n      require(proxyMintArray.length > 0);\n\n      bytes memory nonceBytes = uintToBytesForAddress(nonce);\n\n      address newKing = bytesToAddress(nonceBytes);\n\n      uint previousEpochCount = ERC918Interface(minedToken).epochCount();\n\n      address proxyMinter = proxyMintArray[0];\n\n      if(proxyMintArray.length == 1)\n      {\n        //Forward to another contract, typically a pool's owned  mint contract\n        require(proxyMinterInterface(proxyMinter).proxyMint(nonce, challenge_digest));\n      }else{ //greater than 1, pop the proxyMinter from the end of the array\n        address[] memory remainingProxyMintArray = popFirstFromArray(proxyMintArray);\n        require(mintForwarderInterface(proxyMinter).mintForwarder(nonce, challenge_digest,remainingProxyMintArray));\n      }\n\n     //make sure that the minedToken really was proxy minted through the proxyMint delegate call chain\n      require(  ERC918Interface(minedToken).epochCount() == previousEpochCount.add(1) );\n\n      miningKing = newKing;\n\n      return true;\n   }\n\n  function popFirstFromArray(address[] array)   returns (address[])\n  {\n    address[] memory newArray;\n\n    for (uint i=1; i<array.length; i++) {\n      newArray[i-1] =  array[i]  ;\n    }\n\n    return newArray;\n  }\n\n function uintToBytesForAddress(uint256 x) constant returns (bytes b) {\n\n      b = new bytes(20);\n      for (uint i = 0; i < 20; i++) {\n          b[i] = byte(uint8(x / (2**(8*(31 - i)))));\n      }\n\n      return b;\n    }\n\n\n function bytesToAddress (bytes b) constant returns (address) {\n     uint result = 0;\n     for (uint i = b.length-1; i+1 > 0; i--) {\n       uint c = uint(b[i]);\n       uint to_inc = c * ( 16 ** ((b.length - i-1) * 2));\n       result += to_inc;\n     }\n     return address(result);\n }\n\n\n\n\n}\n",
  "sourcePath": "/home/andy/dev/lava-wallet/contracts/MiningKing.sol",
  "compiler": {
    "name": "solc",
    "version": "0.4.24+commit.e67f0147.Emscripten.clang"
  },
  "schemaVersion": "2.0.1",
  "updatedAt": "2018-07-20T12:50:03.127Z"
}