{
  "contractName": "MiningKing",
  "abi": [
    {
      "constant": true,
      "inputs": [],
      "name": "miningKing",
      "outputs": [
        {
          "name": "",
          "type": "address"
        }
      ],
      "payable": false,
      "stateMutability": "view",
      "type": "function"
    },
    {
      "constant": true,
      "inputs": [],
      "name": "minedToken",
      "outputs": [
        {
          "name": "",
          "type": "address"
        }
      ],
      "payable": false,
      "stateMutability": "view",
      "type": "function"
    },
    {
      "inputs": [
        {
          "name": "mintableToken",
          "type": "address"
        }
      ],
      "payable": false,
      "stateMutability": "nonpayable",
      "type": "constructor"
    },
    {
      "payable": true,
      "stateMutability": "payable",
      "type": "fallback"
    },
    {
      "anonymous": false,
      "inputs": [
        {
          "indexed": false,
          "name": "from",
          "type": "address"
        },
        {
          "indexed": false,
          "name": "to",
          "type": "address"
        }
      ],
      "name": "TransferKing",
      "type": "event"
    },
    {
      "constant": false,
      "inputs": [],
      "name": "getKing",
      "outputs": [
        {
          "name": "king",
          "type": "address"
        }
      ],
      "payable": false,
      "stateMutability": "nonpayable",
      "type": "function"
    },
    {
      "constant": false,
      "inputs": [
        {
          "name": "newKing",
          "type": "address"
        }
      ],
      "name": "transferKing",
      "outputs": [],
      "payable": false,
      "stateMutability": "nonpayable",
      "type": "function"
    },
    {
      "constant": false,
      "inputs": [
        {
          "name": "nonce",
          "type": "uint256"
        },
        {
          "name": "challenge_digest",
          "type": "bytes32"
        },
        {
          "name": "proxyMinter",
          "type": "address"
        }
      ],
      "name": "mintForwarder",
      "outputs": [
        {
          "name": "",
          "type": "bool"
        }
      ],
      "payable": false,
      "stateMutability": "nonpayable",
      "type": "function"
    },
    {
      "constant": true,
      "inputs": [
        {
          "name": "x",
          "type": "uint256"
        }
      ],
      "name": "uintToBytesForAddress",
      "outputs": [
        {
          "name": "b",
          "type": "bytes"
        }
      ],
      "payable": false,
      "stateMutability": "view",
      "type": "function"
    },
    {
      "constant": true,
      "inputs": [
        {
          "name": "b",
          "type": "bytes"
        }
      ],
      "name": "bytesToAddress",
      "outputs": [
        {
          "name": "",
          "type": "address"
        }
      ],
      "payable": false,
      "stateMutability": "view",
      "type": "function"
    }
  ],
  "bytecode": "0x608060405234801561001057600080fd5b50604051602080610a7e8339810180604052810190808051906020019092919050505080600160006101000a81548173ffffffffffffffffffffffffffffffffffffffff021916908373ffffffffffffffffffffffffffffffffffffffff160217905550506109fa806100846000396000f300608060405260043610610083576000357c0100000000000000000000000000000000000000000000000000000000900463ffffffff16806306d8619b1461008857806340510399146100cb57806342526e4e146101225780637920d804146101cb5780637968716614610222578063b17216f5146102c8578063edfffca01461033b575b600080fd5b34801561009457600080fd5b506100c9600480360381019080803573ffffffffffffffffffffffffffffffffffffffff169060200190929190505050610392565b005b3480156100d757600080fd5b506100e06104c7565b604051808273ffffffffffffffffffffffffffffffffffffffff1673ffffffffffffffffffffffffffffffffffffffff16815260200191505060405180910390f35b34801561012e57600080fd5b50610189600480360381019080803590602001908201803590602001908080601f01602080910402602001604051908101604052809392919081815260200183838082843782019150505050505091929192905050506104ec565b604051808273ffffffffffffffffffffffffffffffffffffffff1673ffffffffffffffffffffffffffffffffffffffff16815260200191505060405180910390f35b3480156101d757600080fd5b506101e06105b9565b604051808273ffffffffffffffffffffffffffffffffffffffff1673ffffffffffffffffffffffffffffffffffffffff16815260200191505060405180910390f35b34801561022e57600080fd5b5061024d600480360381019080803590602001909291905050506105e2565b6040518080602001828103825283818151815260200191508051906020019080838360005b8381101561028d578082015181840152602081019050610272565b50505050905090810190601f1680156102ba5780820380516001836020036101000a031916815260200191505b509250505060405180910390f35b3480156102d457600080fd5b50610321600480360381019080803590602001909291908035600019169060200190929190803573ffffffffffffffffffffffffffffffffffffffff1690602001909291905050506106b6565b604051808215151515815260200191505060405180910390f35b34801561034757600080fd5b5061035061098a565b604051808273ffffffffffffffffffffffffffffffffffffffff1673ffffffffffffffffffffffffffffffffffffffff16815260200191505060405180910390f35b6000809054906101000a900473ffffffffffffffffffffffffffffffffffffffff1673ffffffffffffffffffffffffffffffffffffffff163373ffffffffffffffffffffffffffffffffffffffff161415156103ed57600080fd5b806000806101000a81548173ffffffffffffffffffffffffffffffffffffffff021916908373ffffffffffffffffffffffffffffffffffffffff1602179055507fcb21dc7de62e70efdb467b866050922f2845c8b005b478e6ca5dd975819943dd3382604051808373ffffffffffffffffffffffffffffffffffffffff1673ffffffffffffffffffffffffffffffffffffffff1681526020018273ffffffffffffffffffffffffffffffffffffffff1673ffffffffffffffffffffffffffffffffffffffff1681526020019250505060405180910390a150565b6000809054906101000a900473ffffffffffffffffffffffffffffffffffffffff1681565b6000806000806000809350600186510392505b60006001840111156105ad57858381518110151561051957fe5b9060200101517f010000000000000000000000000000000000000000000000000000000000000090047f0100000000000000000000000000000000000000000000000000000000000000027f0100000000000000000000000000000000000000000000000000000000000000900491506002600184885103030260100a8202905080840193508280600190039350506104ff565b83945050505050919050565b60008060009054906101000a900473ffffffffffffffffffffffffffffffffffffffff16905090565b6060600060146040519080825280601f01601f19166020018201604052801561061a5781602001602082028038833980820191505090505b509150600090505b60148110156106ad5780601f0360080260020a8381151561063f57fe5b047f010000000000000000000000000000000000000000000000000000000000000002828281518110151561067057fe5b9060200101907effffffffffffffffffffffffffffffffffffffffffffffffffffffffffffff1916908160001a9053508080600101915050610622565b81915050919050565b600060606000806106c6876105e2565b92506106d1836104ec565b9150600160009054906101000a900473ffffffffffffffffffffffffffffffffffffffff1673ffffffffffffffffffffffffffffffffffffffff1663829965cc6040518163ffffffff167c0100000000000000000000000000000000000000000000000000000000028152600401602060405180830381600087803b15801561075957600080fd5b505af115801561076d573d6000803e3d6000fd5b505050506040513d602081101561078357600080fd5b810190808051906020019092919050505090508473ffffffffffffffffffffffffffffffffffffffff1663b1bb4d3588886040518363ffffffff167c010000000000000000000000000000000000000000000000000000000002815260040180838152602001826000191660001916815260200192505050602060405180830381600087803b15801561081557600080fd5b505af1158015610829573d6000803e3d6000fd5b505050506040513d602081101561083f57600080fd5b8101908080519060200190929190505050151561085b57600080fd5b61086f6001826109b090919063ffffffff16565b600160009054906101000a900473ffffffffffffffffffffffffffffffffffffffff1673ffffffffffffffffffffffffffffffffffffffff1663829965cc6040518163ffffffff167c0100000000000000000000000000000000000000000000000000000000028152600401602060405180830381600087803b1580156108f557600080fd5b505af1158015610909573d6000803e3d6000fd5b505050506040513d602081101561091f57600080fd5b810190808051906020019092919050505014151561093c57600080fd5b816000806101000a81548173ffffffffffffffffffffffffffffffffffffffff021916908373ffffffffffffffffffffffffffffffffffffffff160217905550600193505050509392505050565b600160009054906101000a900473ffffffffffffffffffffffffffffffffffffffff1681565b60008082840190508381101515156109c457fe5b80915050929150505600a165627a7a723058200d308c11d058227d9d0d982602d464a87493b3080310e6dff9699692373489200029",
  "source": "pragma solidity ^0.4.18;\n\n\nimport \"./SafeMath.sol\";\n\n\n/*\n\nThis is a King Of The Hill contract which requires Proof of Work (hashpower) to set the king\n\nThis global non-owned contract proxy-mints 0xBTC through a personally-owned mintHelper contract (MintHelper.sol)\n\n*/\n\ncontract ERC20Interface {\n    function totalSupply() public constant returns (uint);\n    function balanceOf(address tokenOwner) public constant returns (uint balance);\n    function allowance(address tokenOwner, address spender) public constant returns (uint remaining);\n    function transfer(address to, uint tokens) public returns (bool success);\n    function approve(address spender, uint tokens) public returns (bool success);\n    function transferFrom(address from, address to, uint tokens) public returns (bool success);\n\n    event Transfer(address indexed from, address indexed to, uint tokens);\n    event Approval(address indexed tokenOwner, address indexed spender, uint tokens);\n}\ncontract ERC918Interface {\n\n  function epochCount() public constant returns (uint);\n\n  function totalSupply() public constant returns (uint);\n  function getMiningDifficulty() public constant returns (uint);\n  function getMiningTarget() public constant returns (uint);\n  function getMiningReward() public constant returns (uint);\n  function balanceOf(address tokenOwner) public constant returns (uint balance);\n\n  function mint(uint256 nonce, bytes32 challenge_digest) public returns (bool success);\n\n  event Mint(address indexed from, uint reward_amount, uint epochCount, bytes32 newChallengeNumber);\n\n}\n\n\n\ncontract proxyMinterInterface\n{\n  function proxyMint(uint256 nonce, bytes32 challenge_digest) public returns (bool success);\n}\n\n\ncontract MiningKing   {\n\n\n  using SafeMath for uint;\n\n\n   address public miningKing;\n\n   address public minedToken;\n\n\n   event TransferKing(address from, address to);\n\n   // 0xBTC is 0xb6ed7644c69416d67b522e20bc294a9a9b405b31;\n  constructor(address mintableToken) public  {\n    minedToken = mintableToken;\n  }\n\n\n  //do not allow ether to enter\n  function() public payable {\n      revert();\n  }\n\n  function getKing() public returns (address king)\n  {\n    return miningKing;\n  }\n\n   function transferKing(address newKing) public   {\n\n       require(msg.sender == miningKing);\n\n       miningKing = newKing;\n\n       TransferKing(msg.sender, newKing);\n\n   }\n\n\n/**\nSet the king to the Ethereum Address which is encoded as 160 bits of the 256 bit mining nonce\n\n\n**/\n\n//proxyMintWithKing\n   function mintForwarder(uint256 nonce, bytes32 challenge_digest, address proxyMinter) returns (bool)\n   {\n\n      bytes memory nonceBytes = uintToBytesForAddress(nonce);\n\n      address newKing = bytesToAddress(nonceBytes);\n\n      uint previousEpochCount = ERC918Interface(minedToken).epochCount();\n\n      //Forward to another contract, typically a pool's owned  mint contract\n      require(proxyMinterInterface(proxyMinter).proxyMint(nonce, challenge_digest));\n\n     //make sure that the minedToken really was proxy minted through the proxyMint delegate call chain\n      require(  ERC918Interface(minedToken).epochCount() == previousEpochCount.add(1) );\n\n      miningKing = newKing;\n\n      return true;\n   }\n\n\n\n function uintToBytesForAddress(uint256 x) constant returns (bytes b) {\n\n      b = new bytes(20);\n      for (uint i = 0; i < 20; i++) {\n          b[i] = byte(uint8(x / (2**(8*(31 - i)))));\n      }\n\n      return b;\n    }\n\n\n function bytesToAddress (bytes b) constant returns (address) {\n     uint result = 0;\n     for (uint i = b.length-1; i+1 > 0; i--) {\n       uint c = uint(b[i]);\n       uint to_inc = c * ( 16 ** ((b.length - i-1) * 2));\n       result += to_inc;\n     }\n     return address(result);\n }\n\n\n\n\n}\n",
  "sourcePath": "/home/andy/dev/lava-wallet/contracts/MiningKing.sol",
  "compiler": {
    "name": "solc",
    "version": "0.4.24+commit.e67f0147.Emscripten.clang"
  },
  "schemaVersion": "2.0.1",
  "updatedAt": "2018-07-19T18:21:51.846Z"
}